:020000040800F2
:100000009006002005010008CF230008991F000872
:10001000CD2300083D0C0008492A0008000000001C
:10002000000000000000000000000000072700089A
:10003000ED0D000800000000052700080927000852
:100040001F0100081F0100081F0100081F01000810
:100050001F0100081F0100081F0100081F01000800
:100060001F0100081F0100081F0100081F010008F0
:100070001F0100081F0100081F0100081F010008E0
:100080001F0100081F0100081F0100081F010008D0
:100090001F0100081F0100081F0100081F010008C0
:1000A0001F0100081F0100081F0100081F010008B0
:1000B0001F0100081F0100081F0100081F010008A0
:1000C0001F0100081F0100081F0100081F01000890
:1000D0001F010008ED2900081F0100081F0100088A
:1000E0001F0100081F0100081F010008DFF810D0E1
:1000F00000F01EFB0048004715340008AFF30080F5
:10010000900600200648804706480047FEE7FEE7C5
:10011000FEE7FEE7FEE7FEE7FEE7FEE7FEE7FEE7B7
:100120006B270008ED000008202A04DB203A21FAA2
:1001300002F00021704721FA02F3D040C2F1200200
:100140009140084319467047D2B201E000F8012BF4
:10015000491EFBD270470022F6E710B513460A4647
:1001600004461946FFF7F0FF204610BD10B50446BF
:1001700004E00B7800F8013B03B1491C521EF8D291
:10018000204610BD70B500B91068002512E00B467E
:1001900002E0A64203D05B1C1C78002CF9D1E3B22C
:1001A0002B4305D02CB125B1002100F8011B04E040
:1001B0000546401C0678002EE9D11060284670BD27
:1001C000004ADFE71400002000F0004230F0004059
:1001D0000AD0C10D01F56071C0F3160042EA015169
:1001E000C20840071143704700200146704701F0E4
:1001F000004330B421F0004150EA010206D00A0D5C
:10020000A2F56072C1F31301002A02DC30BC0020A9
:100210007047440F44EAC104C100E01830BC00EB51
:10022000C25000F095B830B50B46014600202022A0
:10023000012409E021FA02F59D4205D303FA02F5F3
:10024000491B04FA02F52844151EA2F10102F1DC53
:1002500030BD2DE9F05F0546002092469B4688465A
:100260000646814640241BE0284641464746224632
:10027000FFF75AFF53465A46C01A914110D3114610
:100280001846224600F066FA2D1A67EB01084F4621
:1002900022460120002100F05DFA17EB00094E41D3
:1002A000201EA4F10104DFDC484631462A464346BD
:1002B000BDE8F09F0FB4002300B589B00CA90091F0
:1002C0000B996FF00042CB601E4B06931E4B0793B9
:1002D0000423CDE901321D4A089202466B460020F4
:1002E00000F0F2FA09B05DF814FB70B586B006466E
:1002F0004FF0FF300091CDE90101002015460C467A
:1003000004903246694604A8FFF7D4FF02460498D9
:10031000211825B108B1084600E02046286004985D
:1003200000280DD0002A02DD0098884208D0081B62
:100330000094CDE901043246694604A8FFF7BAFFEC
:1003400006B070BD010B00081F0B000897070008DE
:100350000029A8BF7047401C490008BF20F00100D9
:10036000704710B4B0FA80FC00FA0CF050EA0104B7
:1003700004BF10BC704749B1CCF1200421FA04F449
:1003800011FA0CF118BF012121430843A3EB0C0122
:10039000CB1D4FEA00614FEA102042BF002010BC85
:1003A000704700EBC35010440029A4BF10BC704735
:1003B000401C490008BF20F0010010BC70472DE927
:1003C000FE4F804681EA0300C00F0C46009021F0EA
:1003D000004123F00045B8EB0200A94105D2404698
:1003E000214690461C460B46024623F0004010432F
:1003F00047D0270DC7F30A00C3F30A510290401AF1
:10040000019040286BDAC3F3130040F4801B00987E
:10041000924620B10023D2EB030A63EB0B0B019849
:100420005946C0F14002504600F094F906460D4688
:1004300050465946019A00F09CF910EB08006141C2
:10044000002487EA115284EAE7731A4340D0009AE5
:1004500062B3019A012A4FEA075215DC001B61EBD7
:1004600002014FF0004202EA0752CDE90042001CAF
:1004700041F5801132462B4600F071FB03B0BDE818
:10048000F08F40462146F9E7001B61EB0201001C9A
:1004900041F5801300185B412018A2F5001747EBC7
:1004A000030140EAD570B6196D4111E06D084FEABD
:1004B000360645EAC0754FEA0752001B61EB0201A0
:1004C000001C41F5801149084FEA300000195141E4
:1004D00032462B4603B0BDE8F04F00F031BB009828
:1004E000012240000023D0EB020263EBE07300988E
:1004F00021464FEAE074B8EB000061EB0401E9E744
:1005000083F000435BE781F0004158E72DE9FE4F9F
:1005100081EA030404F0004421F0004100944FF00C
:10052000000B23F0004350EA01045ED052EA0304BA
:100530005BD0C3F30A54C1F30A552C44A4F2F3343C
:100540000194A0FB0254C1F3130141F48011C3F3E1
:10055000130343F4801301FB024400FB034E840A9F
:10056000970A44EA815447EA8357A4FB0768029537
:100570008D0A05FB07854FEA932C04FB0C542705D5
:10058000029D4FEA065847EA1637B5EB08056EEBB1
:10059000070C870E920E47EA811742EA8312A7FBE7
:1005A0000201B6EB0B0164EB00042B0D43EA0C33A4
:1005B0005E1844EB1C50DA465146E7FB0201C5F3D6
:1005C00013044FEA0B3343EA14534FEA0432019CFD
:1005D00043EA0603A4F10C040294009CCDE900B4A4
:1005E00000F0BDFA03B0BDE8F08F00200146F9E746
:1005F0002DE9F04D81EA030404F0004B21F00045A1
:1006000014464FF0000A23F0004150EA050220D0C2
:1006100054EA01021DD0C5F30A570246C5F313037D
:10062000C1F31300C1F30A5640F4801543F480135C
:10063000A7EB0608101BD64608F2FD3873EB050041
:1006400002D308F1010801E092185B41B8F1000FF4
:1006500003DA00200146BDE8F08D00204FF4801140
:10066000064684460EE0171B73EB050705D3121BE5
:1006700063EB050306434CEA010C49084FEA3000DE
:1006800092185B4150EA0107EDD152EA030012D003
:1006900082EA040083EA0501084305D0101BAB4140
:1006A00006D20122002306E000224FF0004302E0C0
:1006B0006FF0010253101AEB06004CEB085110EBDF
:1006C0000A0041EB0B01BDE8F04D00F039BAC1F36F
:1006D0000A52C1F3130140F2FF3341F480119A42F0
:1006E00002DA00200146704740F233439A42A2F2F8
:1006F000334202DC5242FFF717BD00F02BB8000076
:1007000030B5041E71F1000404DB4FF00044404298
:1007100064EB0101141E73F1000405DB1C464FF06D
:100720000043524263EB0403994208BF904230BD3C
:10073000064C074D06E0E06840F0010394E807002E
:1007400098471034AC42F6D3FFF7D4FC783B00084E
:10075000983B0008202A04DB203A00FA02F100202E
:1007600070479140C2F1200320FA03F319439040EF
:100770007047202A06DBCB17203A41FA02F043EA01
:10078000E07306E041FA02F3D040C2F1200291404A
:10079000084319467047C0B24FF4F05100F02EBA2A
:1007A0002DE9FF4F087883B09946FF2805D0491CF2
:1007B0002D2804D00024002008E000200BE00124B4
:1007C000F9E700EB800003EB4000491C0B78FF2B9E
:1007D000F7D104B1404200230293147819461D4614
:1007E0002D2C01D02B2C04D1521C2D2C13D00024E5
:1007F0000294AA461478FF2C0FD00A25A3FB057893
:1008000001FB05814FF0000C03FB0C11521CE31996
:100810004AEB0101EEE70124EAE7814453EA0100D3
:1008200002D019F5C87F06DA03980021C0E900114B
:1008300007B0BDE8F08F0025AE4E2F46DFF8B88236
:10084000184600F0EFF9CDE90001B9F1000002DA35
:10085000C9F1000400E004460023A74A1AEB030B89
:1008600042EB045A12E0E00707D02A4633463846E6
:100870004146FFF74BFE074688462A463346104658
:100880001946FFF743FE05460E466410002CEAD1D8
:10089000DDE90001B9F1000F5A46534606DAFFF7C9
:1008A000A7FE3A464346FFF7A3FE05E0FFF72EFEFC
:1008B0003A464346FFF72AFE029A0AB181F0004108
:1008C000039AC2E90001B3E72DE9FF4F1F468DB03F
:1008D000D7E901464FF0FF382E2045464FF000097A
:1008E0000B90B9696D1C0E988847396A8246884713
:1008F0000028F6D1BAF1FF3F0AD024F4D064002ECC
:1009000011DDBAF12B0F08D0BAF12D0F0BD102E097
:10091000404611B08DE744F48064B9696D1C0E98AF
:1009200088478246761E6946600501D52D2000E085
:100930002B208DF8000001F1010B0DF1200809E0DA
:10094000B9696D1C0E98884782460F9844F400746C
:10095000761E0560002E02DDBAF1300FF0D00B9943
:100960008A453ED144F0800406E00F99681CA9F145
:10097000010944F400740860B9696D1C761E0E9874
:10098000884782463028F0D02BE00B998A4505D164
:10099000200603D444F08004761E18E0504602F08E
:1009A0006DF908B30DF11301761E44F400748B4504
:1009B00008D2AAF130000BF8010B200607D5A9F1E7
:1009C000010003E0200602D409F101008146A005E0
:1009D00002D50F99681C0860B9696D1C0E9888478C
:1009E0008246002ED1DC53E0002E51DDBAF1650FB6
:1009F00002D0BAF1450F4BD1A00549D5B9696D1C9C
:100A000024F44074761E0E9888478246002E0CDD32
:100A10002B2804D0BAF12D0F07D144F48074B969A2
:100A20006D1C0E9888478246761EE00501D52D2163
:100A300000E02B2108F8011BCDF82C8021E00DF1FE
:100A40002901761E44F4007488450CD2AAF13000C6
:100A500010F0FF0088F8000002D10B99884509D9F1
:100A600008F1010806E0E00501D5244801E042F262
:100A70000F708146B9696D1C0E98884782460F98A1
:100A80000560002E04DD504602F0F8F80028D6D1AB
:100A9000F9690E988847FF208BF8000088F800005D
:100AA0000020069007904B466A4608A906A8FFF763
:100AB00077FEA00502D46FF001002AE714F0240F9E
:100AC0000AD0E00714D1DDE906123868031D3B6047
:100AD0000068C0E900120BE0DDE90601FFF787FBC3
:100AE0000146E00704D13868021D3A6000680160E1
:100AF00028460EE7000014400000F03FF1D8FFFF49
:100B0000426842B1016811F8013B23B1521EC0E9AD
:100B10000012184670470121C160881E7047426864
:100B20005AB1C368016843B983688B4205D0491E36
:100B3000521CC0E90012002070474FF0FF30704790
:100B400010B5141E73F1000408DA401C41F10001D5
:100B500092185B411A4301D120F0010010BD2DE92C
:100B6000F04D92469B4611B1B1FA81F202E0B0FA23
:100B700080F220329046FFF7EDFD04460F4640EA32
:100B80000A0041EA0B0153465A46084313D0114666
:100B900053EA010019D0C8F140025046FFF7C4FAE9
:100BA00005460E46504659464246FFF7D3FD0843D8
:100BB00005D0012004E020463946BDE8F08D002034
:100BC000054346EAE0762C4337430A986305E40A76
:100BD000A0EB08000022FD0A44EA47540A3002D57F
:100BE00000200146E9E7010510196941DDE90845E2
:100BF00000196941BDE8F04DA2E700007F2801D946
:100C0000002208E0064A02EB5002C007127800D129
:100C1000120902F00F0201209040084070470000C6
:100C2000363B00080EB540F2334202920022CDE975
:100C300000221346FFF793FF03B000BDFEE700005C
:100C40001FB500200190029003900120009069469A
:100C5000014800F063F91FBD000801401FB50020E6
:100C60000290012000900190022003906946024802
:100C700000F054F91FBD00000008014010B5FFF757
:100C8000EDFF01221146044800F03DFABDE8104096
:100C90004FF47A7000F030B9000801402DE9FC47AC
:100CA00005460024FFF7DAFF4F4F002201213846A6
:100CB00000F029FA44F6206002F08CFB0122114674
:100CC000384600F020FA1E2002F084FBFFF7B8FF40
:100CD00004E0641CE4B2012002F07CFB01213846F0
:100CE00000F00CFA10B1642CF3D37BE0642C79D2C1
:100CF00000263C4604E0761CF6B2012002F06AFBB6
:100D00000121204600F0FAF918B1642E6AD20026BB
:100D100007E0642EEFD365E0761CF6B2012002F006
:100D200059FB0121204600F0E9F910B1642EF3D3FC
:100D300058E0642E56D24FF00009A04600263746F0
:100D4000002404E0641CE4B2012002F043FB012112
:100D5000404600F0D3F978B1642C43D2282002F049
:100D600039FB7006060E0121404600F0C7F9A8B114
:100D700046F00106002407E0642CE3D332E0641C53
:100D8000E4B2012002F026FB0121404600F0B6F952
:100D900010B1642CF3D325E0642C23D27F1CFFB266
:100DA000082FCDD30DF8096009F1010000F0FF090B
:100DB000B9F1050FC2D39DF800109DF801309DF8E0
:100DC00002409DF80300CA18261816449DF8042016
:100DD000964207D129706B70AC70E8702A710020C0
:100DE000BDE8FC870120FBE70008014070470000D8
:100DF0000648016841F080710160054800214160AA
:100E0000016841F00101016070470000FCED00E065
:100E1000001000E072B6FEE710B590F82110002235
:100E2000022905D00421816380F82020012010BD13
:100E300001680B6823F00E030B6001680B6823F058
:100E400001030B6090F84030C46B012101FA03F3F9
:100E5000636080F8211080F82020104610BD00004B
:100E600010B590F821100024022903D004218163D9
:100E700001243DE001680A6822F00E020A60016860
:100E80000A6822F001020A601A4A0168914201D1FF
:100E9000012121E0174A1432914201D110211BE0B7
:100EA000144A2832914201D1891515E0114A3C3289
:100EB000914201D189140FE00E4A5032914202D181
:100EC0004FF4803108E00B4A6432914202D14FF472
:100ED000801101E04FF08071064A083A516001210B
:100EE00080F82110002180F82010416B01B1884763
:100EF000204610BD0800024070B5044600F008F915
:100F00000546601C02D004480078044400F000F953
:100F1000401BA042FAD370BD040000202DE9F84F19
:100F2000DFF8B8910024A9F1040B23460F2709F13B
:100F3000040AABF1040EC9E00125A5402A40AA42EB
:100F40007DD1674ED1F804C0ACEB0608B44532D071
:100F500014DCBCF1030F3AD009DCBCF1000F2AD03D
:100F6000BCF1010F1CD0BCF1020F31D11DE0BCF16E
:100F7000110F17D0BCF1120F2AD119E0B8F5881F54
:100F800019D006DCB8F5803F15D0B8F5801F1FD109
:100F900011E0B8F5001F0ED0B8F5041F18D10AE013
:100FA000CB6815E0CB681B1D12E0CB6808330FE05F
:100FB000CB680C330CE08B682BB1012B4FF008038E
:100FC00003D0456104E0042302E0056100E0002352
:100FD000FF2A01D8064601E000F104064FEA840525
:100FE00001D9A5F12005D6F8008007FA05FC28EA0A
:100FF0000C0803FA05F548EA0508C6F800804D68B4
:10100000ED0062D5374DAE6946F00106AE61AD69BF
:1010100024F0030605F001050095334D06EB050CA1
:10102000DCF80850A607360F07FA06F825EA080587
:10103000DFF8B880404503D14FF0000817E044E0E6
:10104000DFF8AC80404502D14FF001080FE0DFF837
:10105000A480404502D14FF0020808E0DFF89880F4
:10106000404502D14FF0030801E04FF0040808FAB0
:1010700006F848EA0508CCF808804D68D9F8006001
:10108000ED024D4601D5164300E096432E604D68B3
:10109000DAF80060AD02554601D5164300E09643EC
:1010A0002E604D68DBF80060AD035D4601D5164348
:1010B00000E096432E604D68DEF80060ED03754653
:1010C00001D5164300E096432E60641C0D682A4645
:1010D000E5407FF431AFBDE8F88F0000080401401F
:1010E0000000111000100240000001400008014003
:1010F000000C0140001001400014014080680840CD
:1011000000D0012070470AB1016170470904FBE774
:1011100001488068704700000400002070B504009A
:1011200025D094F83D00002520B984F83C50204695
:1011300000F04EF9242084F83D002068016821F079
:10114000010101602068016841F4004101602068EC
:10115000016821F40041016000F096FA4D4A61688F
:10116000914201D84C4900E04C49884201D201200B
:1011700070BD4B492368B0FBF1F15E6826F03F0675
:101180000E435E606368934206D94FF496735943E9
:101190004FF47A73B1FBF3F12368491C1E6A26F001
:1011A0003F06314319626168914210D84900401EE0
:1011B000B0FBF1F2521CC2F30B02042A01D204204C
:1011C00022E0B0FBF1F0401CC0F30B001CE0A26871
:1011D000F2B301EBC10303EB0116431EB3FBF6F3BD
:1011E0005B1C43F480431B0549D092B301EBC10261
:1011F00002EB0111401EB0FBF1F0401CC0F30B00EC
:1012000040F4804040F400402168CA694CF6FF7306
:101210009A431043C861D4E907100143206802686B
:1012200022F0C00211430160D4E9030101432068A8
:10123000826848F2FF339A4311438160D4E9050183
:1012400008432168CA6822F0FF021043C86001E029
:101250000EE016E02068016841F00101016025649C
:10126000202084F83D00256384F83E50002070BDA6
:1012700001EB4106431EB3FBF6F35B1CB3E7012011
:10128000C2E701EB4101401EB0FBF1F0401CC0F38E
:101290000B00B7E7A086010080841E0000093D0016
:1012A00040420F002DE9F84F1F4690468A460446FB
:1012B000DDF82890FFF72CFF054694F83D00202824
:1012C0007FD11923012240492046009500F0F6FE07
:1012D000002876D194F83C00012872D0012084F8CF
:1012E0003C0020680168C90703D1016841F0010191
:1012F00001602068016821F400610160212084F808
:101300003D00102084F83E0000262664C4F82480A6
:101310006785608D20852D48E0622B464A46514600
:10132000204600F051FE90B9206841698069009024
:1013300036E02A464946204600F066FF50B1206C50
:10134000042804D12068016841F400710160012083
:10135000BDE8F88F606A216800780861606A401C07
:101360006062618D491E6185218D491E89B221858A
:1013700022685369DB435B070BD451B100781061DD
:10138000606A401C6062608D401E6085208D401E3A
:1013900020852A464946204600F064FE0028CED12A
:1013A000208D0028C5D154F83D0B016841F400712F
:1013B0000160202004F81E09E67766770020C7E761
:1013C000FFE70220C4E70000020010000000FFFF5A
:1013D00010B586B00021009101910291039100683F
:1013E0000F4988421AD10F4CA06940F00800A06153
:1013F000A069694600F008000490C0200090122007
:101400000190032003900848FFF788FDE06940F44D
:101410000010E061E06900F40010049006B010BD17
:101420000054004000100240000C01400248816856
:10143000027811448160704704000020074810B50D
:10144000016841F010010160032000F075F80F20E1
:1014500000F006F800F024F8002010BD0020024043
:1014600070B50D4D04464FF47A712878B1FBF0F059
:101470000A490968B1FBF0F000F070FB48B9102C84
:1014800007D200222146501E00F036F800206C6082
:1014900070BD012070BD000004000020100000207D
:1014A0000C4808B5816941F001018161816901F051
:1014B00001010091C16941F08051C161C06900F032
:1014C000805000900448416821F0E06141F00071D3
:1014D000416008BD0010024000000140002809DB07
:1014E00000F01F02012191404009800000F1E0203E
:1014F000C0F8001170470000F0B40E4B1B680C469A
:10150000C3F30223C3F10705042D00D90425191DD7
:10151000072901D2002300E0DB1E012606FA05F1AF
:10152000491E214099409E40761E16403143F0BC32
:1015300001F0B6BA0CED00E0064900F007020868B9
:101540004FF6FF03184040EA0220034A10430860A8
:10155000704700000CED00E00000FA052DE9F047AF
:101560000F46050061D0434E306800F00700B842D6
:1015700009D2306820F0070038433060306800F04E
:101580000700B84251D128683B4C810712D540076B
:1015900003D5606840F4E06060602878000703D5F8
:1015A000606840F4605060606068A96820F0F000F6
:1015B000084360602878C00728D06868012810D0E8
:1015C0002168022810D0890700292EDA616821F0ED
:1015D000030101436160FFF79BFD804641F28839BA
:1015E0000DE021688903EFE78901EDE7FFF790FD42
:1015F000A0EB0801494502D90320BDE8F0876068E7
:10160000696800F00C00B0EB810FEFD1306800F09A
:101610000700B8420BD9306820F00700384330602B
:10162000306800F00700B84201D00120E5E72878D3
:10163000400705D56068E96820F4E0600843606011
:101640002878000706D56068296920F4605040EAD0
:10165000C100606000F038F86168084AC1F3031106
:10166000515CC8400649086006480068FFF7F8FE6C
:101670000020C2E700200240001002401E3B00088C
:10168000100000200800002004480549006849684F
:10169000044AC1F30221515CC84070471000002089
:1016A000001002402E3B00080448054900684968C4
:1016B000044AC1F3C221515CC840704710000020A9
:1016C000001002402E3B00080E4A51680E4801F0FF
:1016D0000C03042B11D0082B0FD10C48C1F383430A
:1016E000C903C05C0AD55168084AC1F34041921E43
:1016F000515C054A5043B0FBF1F070470449484340
:10170000704700000010024000127A000E3B0008F3
:1017100000093D002DE9F84F040070D02078C04D3D
:10172000C00749D06868C0F38100012807D0686805
:10173000C0F38100022809D16868C00306D5286873
:10174000800339D560680028E7D035E06068B0F5DF
:10175000803F0BD010B1B0F5A02F11D0286820F435
:1017600080302860286820F4802002E0286840F457
:1017700080302860606890B1FFF7CAFC06460AE036
:10178000286840F480202860F0E700BFFFF7C0FC25
:10179000801B642873D828688003F7D50CE0FFF716
:1017A000B7FC064605E000BFFFF7B2FC801B6428CB
:1017B000F0D828688003F7D420789A4E80074FF03D
:1017C00001094FF0000839D5686810F00C0F07D0F8
:1017D0006868C0F38100022809D16868C00306D494
:1017E0002868800714D52069012808D110E02069F5
:1017F000B0B1C6F80090FFF78BFC074605E00AE1A0
:10180000FFF786FCC01B0228C4D828688007F7D5DC
:101810002868616920F0F80040EAC10028600DE006
:10182000C6F80080FFF774FC074604E0FFF770FC81
:10183000C01B022823D828688007F7D42078000727
:101840002CD57948A169D9B1C0F80090FFF760FCA8
:10185000074604E0FFF75CFCC01B02280FD8686A4B
:101860008007F7D571484FF4FA510068B0FBF1F0EA
:10187000009000BF0098411E0091FAD20EE080E077
:10188000C0F80080FFF744FC074604E0FFF740FC87
:10189000C01B022875D8686A8007F7D420784007F3
:1018A00060D5E8690027C00008D4E86940F080509E
:1018B000E861E869012700F0805000905C48016809
:1018C000C90513D40168834641F480710160FFF7B4
:1018D0001FFC824606E000BFFFF71AFCA0EB0A00DF
:1018E00064284ED8DBF80000C005F5D5E068012873
:1018F0000AD008B1052813D0286A20F00100286218
:10190000286A20F0040002E0286A40F00100286202
:10191000E06841F2883B98B1FFF7FAFB82460BE0A2
:10192000286A40F004002862EEE700BFFFF7F0FBF2
:10193000A0EB0A0159455AD8286A8007F6D50CE071
:10194000FFF7E6FB824605E0FFF7E2FBA0EB0A01AA
:1019500059454CD8286A8007F6D41FB1E86920F0B1
:101960008050E861E06988B36968C1F381010229A8
:1019700044D00228C6F8608004D0FFF7C9FB0446B3
:1019800038E034E0FFF7C4FB074604E0FFF7C0FB94
:10199000C01B02282BD828688001F7D4206AB0F534
:1019A000803F05D16868A16820F400300843686072
:1019B000D4E908010843696821F474110843686098
:1019C000C6F86090FFF7A4FB044606E025E000BFE0
:1019D000FFF79EFB001B022809D828688001F7D575
:1019E0001BE000BFFFF794FB001B022802D9032075
:1019F000BDE8F88F28688001F4D40EE00128F7D004
:101A00006868226A00F48031914204D1616A00F46E
:101A10007010884201D00120EAE70020E8E70000CA
:101A200000100240000042428004424210000020A8
:101A30000070004070B5040009D0606A002540B114
:101A400025616561A56294F8510040B10CE0012068
:101A500070BD6068B0F5827FF4D0E561F2E784F88C
:101A60005050204600F040F8022084F851002068D1
:101A7000016821F040010160A088218900F4827092
:101A800001F404410843A18901F400610843217C69
:101A900001F002010843217D01F001010843218B7F
:101AA00001F400710843217F01F03801084394F8E4
:101AB000201001F080010843218D01F400510843FA
:101AC00021680860A069042101EA1040216848608B
:101AD0002068C16921F40061C1616565012084F855
:101AE0005100002070BD000030B585B00024009486
:101AF00001940294039400681549884225D1154841
:101B0000C16941F48041C161C16901F4804104911E
:101B1000816941F00801816180690F4D00F0080082
:101B200004904FF420400090022001900320039085
:101B300069462846FFF7F2F94FF48040CDE90004EA
:101B4000694628460294FFF7E9F905B030BD000068
:101B50000038004000100240000C014010B5401E4B
:101B6000B0F1807F01D3012010BD4FF0E02460610F
:101B70000F21601700F094FF0020A0610720206172
:101B8000002010BD70477047F8B50168044608682A
:101B9000CA684B6910F00F0F4FF0000559D003F0E1
:101BA000010602F49077374365D0C10705D0D1050F
:101BB00003D5616C41F001016164410705D5D90786
:101BC00003D0616C41F002016164810705D5D9073A
:101BD00003D0616C41F004016164010707D502F094
:101BE0002001314303D0616C41F008016164616CF4
:101BF00000293AD0800604D5900602D5204600F090
:101C0000E4FD20684069616CC0F38010090700D4CE
:101C100060B3204600F0B2FD20684069400621D53F
:101C20002068143050E8001F21F0400140E8001205
:101C3000002AF5D1E06BA8B16D494163E06BFFF775
:101C40000FF9002811D0E06B416B01B0BDE8F04006
:101C5000084783060FD593060DD52046BDE8F8400A
:101C600000F0B3BD2046FFF78EFFF8BD2046FFF71A
:101C70008AFF6564F8BD266B2023012E7CD1C60641
:101C80007AD5D60678D508684868009048694FF03C
:101C90000206400640D5E16B086840680004000C6D
:101CA000E8D0A28D8242E5D9E085886920282DD030
:101CB00020680C3050E8001F21F4807140E80012C9
:101CC000002AF5D12068143050E8001F21F00101EE
:101CD00040E80012002AF5D12068143050E8001FB7
:101CE00021F0400140E80012002AF5D184F842308A
:101CF000256320680C3050E8001F21F0100140E8F7
:101D00000012002AF5D1E06BFFF786F86663A08D1C
:101D1000E18D401A81B22AE0A08DE18D401A81B296
:101D2000E08D0028A6D00029A4D022680C3252E809
:101D3000000F20F4907042E80007002FF5D12068D2
:101D4000143050E8002F22F0010240E80027002F55
:101D5000F5D184F84230256320680C3050E8002F1C
:101D600022F0100240E80023002BF5D166632046E4
:101D7000FFF708FFF8BDFFE705062BD5150629D5A7
:101D800094F841002128F5D1A068B0F5805F01D119
:101D90002069B0B1206A411C216221680078486046
:101DA000E08C401E0004000CE084E3D12068C16890
:101DB00021F08001C1602068C16841F04001C1602C
:101DC000D8E7206A0088C0F308004860206A801CB9
:101DD0002062E5E74006CDD55006CBD5CA6820463F
:101DE00022F04002CA6084F8413000F0D4F8C1E724
:101DF0006D27000870B5040004D094F84100002558
:101E000010B106E0012070BD84F84050204600F07B
:101E100023F8242084F841002068C16821F400518F
:101E2000C160204600F032FD2068016921F4904134
:101E300001612068416921F02A0141612068C1687F
:101E400041F40051C1606564202084F8410084F8A9
:101E500042006563002070BD30B585B00024009459
:101E60000194029403940068184988422CD11848C0
:101E7000816941F480418161816901F4804104916B
:101E8000816941F0040181618069124D00F0040014
:101E900004904FF400700090022001900320039002
:101EA00069462846FFF73AF82815CDE90004694647
:101EB00028460294FFF732F8002211462520FFF74A
:101EC0001BFB2520FFF70AFB05B030BD00380140A1
:101ED000001002400008014090F84230202B01D051
:101EE0000220704721B11AB10023036300F02ABD1C
:101EF0000120704770472DE9F843044690F84100EF
:101F0000984616460D46202802D00220BDE8F883E8
:101F100085B17EB100206064212084F84100FFF784
:101F2000F7F8A6848146E684A0682027B0F5805F94
:101F300002D003E00120E9E7206910B12E46002518
:101F40000EE000260CE08021204600F016FDA8B926
:101F5000C6B116F8010B21684860E08C401EE08491
:101F6000E08C4B464FF00002CDF800800028EAD10B
:101F70004FF04001204600F000FD40B184F8417070
:101F80000320C3E735F8020BC0F30800E3E784F849
:101F900041700020BAE77047FEE701684A69D24302
:101FA00052050FD46FF480624A61002140F8301F5F
:101FB000202242738173026942F0040202610173BC
:101FC0000120704700207047F8B50446C06A1E46DD
:101FD0000D461746082807D0012805D010F5803F88
:101FE00002D0206B122804D12068016841F480716E
:101FF0000160134600224FF001112046009600F0C8
:102000005DF840B120680068C00502D54FF400704B
:1020100020640320F8BD2069B0F5804F0ED0062063
:10202000216800EAD51040F0F000086133463A46D6
:102030000B49204600F08AF878B902E005F0FE006E
:1020400000E0E8B221680861054933463A46891F35
:10205000204600F07BF80028DCD00120F8BD00000D
:102060000800010070B516460D4604461EE02046E5
:10207000FFF793FF08B1012070BD681C16D0FFF771
:1020800047F8801BA84200D885B920684069C04342
:1020900040070BD5002044F8300F20216173A07356
:1020A000216941F0200121612073E4E72068406943
:1020B000C0434007DBD4002070BD00002DE9F0478D
:1020C000984617460D460446C1F30746DDF82090B2
:1020D0002AE000BFB8F1FF3F26D0FFF719F8A0EBC8
:1020E0000901414502D8B8F1000F1DD12068012E29
:1020F00016D0806925EA00000004000C12D00020F0
:10210000B84211D1002044F8300F20216173A07330
:10211000216941F02001216120730120BDE8F08791
:102120004069E7E70120EBE72068012E0AD08069CB
:1021300025EA00000004000C06D00020B842C9D0F7
:102140000020EBE74069F3E70120F7E72DE9F047CE
:10215000984616460D4604464FF000094FF0200AF7
:10216000C1F3074723E020684069C043400515D408
:102170002068016841F40071016021686FF480609B
:102180004861C4F8309084F83DA084F83E90216CFA
:1021900041F00401216484F83C9021E0701C06D0D9
:1021A000FEF7B6FFA0EB0800B04203D816B1012F2E
:1021B0001FD021E02068012F15D0806925EA00009A
:1021C0000004000C18D000BF44F8309F84F80DA024
:1021D00084F80E90216941F02001216184F80C906F
:1021E0000120BDE8F087406925EA00000004000CEA
:1021F000EAD12068406901E02068806925EA000092
:102200000004000CAFD1ECE770B516460D4604464D
:102210001EE02046FFF7C1FE08B1012070BD681C1A
:1022200016D0FEF775FF801BA84200D885B920683C
:102230004069C04300060BD5002044F8300F202130
:102240006173A073216941F0200121612073E4E7EB
:1022500020684069C0430006DBD4002070BD000048
:102260002DE9F04186B000242648009401940294A0
:102270000394816941F010018161816901F01001CD
:102280000491816941F020018161816901F020019F
:102290000491816941F004018161816901F00401C7
:1022A0000491816941F0080181618069164F00F055
:1022B00008000490002201213846FEF724FFDFF8D1
:1022C0004C80002239154046FEF71DFF0122110304
:1022D0004046FEF718FF0125022603960095CDE93A
:1022E000015469463846FEF719FE4FF4A050CDE977
:1022F0000005CDE9024669464046FEF70FFE06B0EE
:10230000BDE8F0810010024000080140000C0140CF
:102310000D4810B50B4901600C49416000214FF494
:1023200080428160C0E9031241618161C161016243
:10233000FEF7F4FE002803D0BDE81040FEF76ABDAA
:1023400010BD00000054004020000020A0860100C5
:102350000F4810B50D4901604FF4827141600021B2
:102360008160C1604FF400720161C0E90512C16172
:102370000162416281620A21C162FFF75BFB0028B2
:1023800003D0BDE81040FEF745BD10BD0038004049
:10239000740000200C4810B50A4901604FF4E13187
:1023A0004160002181600C22C160C0E9041281619A
:1023B000C161FFF71FFD002803D0BDE81040FEF704
:1023C00029BD10BD00380140CC000020FEE7FEE72B
:1023D00070B500240021204600F057F800250020A9
:1023E00000F0BCF86D1CEDB2802DF8D3641CE4B293
:1023F000082CEFD370BD10B5AE2000F09FF8D520AB
:1024000000F09CF8802000F099F8A82000F096F8E1
:102410003F2000F093F8D32000F090F8002000F067
:102420008DF8402000F08AF8A12000F087F8C8203D
:1024300000F084F8DA2000F081F8122000F07EF835
:10244000812000F07BF8CF2000F078F8D92000F050
:1024500075F8F12000F072F8DB2000F06FF8302002
:1024600000F06CF8A42000F069F8A62000F066F8EF
:102470008D2000F063F8142000F060F8AF2000F029
:102480005DF8BDE81040FFF7A3BF10B50C4640F063
:10249000B00000F053F8102040EA141000F04EF89D
:1024A00004F00F00BDE8104000F048B82DE9F041FD
:1024B0000746CE004000083E801E15464FF0FF380C
:1024C000F1B2C0B2FFF7E1FF1148002400EB05159F
:1024D0002819A0F5805090F8000E00F03FF8641C19
:1024E000E4B2082CF4D308EB4700F1B2C0B2FFF716
:1024F000CCFF00242819A0F5805090F8080E00F0B9
:102500002DF8641CE4B2082CF4D3BDE8F08100007F
:102510001C3500082DE9F04115460E4607460024FB
:1025200006E03019C1B23846FFF7C0FF641CE4B2C0
:102530002A5D002AF5D1BDE8F08100001CB500211C
:1025400001918DF80500481E0090022301AA782110
:102550000148FEF7A7FE1CBD200000201CB507A106
:102560000223096801918DF805004FF0FF300090BB
:1025700001AA78210248FEF795FE1CBD400000002C
:1025800020000020F0B53A4C8BB000276770FFF7B1
:102590001FFF012137A20846FFF7BCFF39493AA0C7
:1025A00000F054FA08AA3DA13648FDF7EBFD0646B7
:1025B0003B4D52E031463BA000F048FA09AA3FA14A
:1025C0003046FDF7DFFD010041D06078132200EBBB
:1025D000400005EBC000FDF7C9FD607809AA00EBDB
:1025E000400005EBC00035A1C7740020FDF7CAFD0F
:1025F00068B300F0D9FEFDF7FAFD617801EB410107
:1026000005EBC1014861607800EB400005EBC000BC
:102610004069FDF7D9FDCDE90001607828A200EB03
:10262000400005EBC003152102A800F01FFA6078F6
:1026300002AA801CC0B20121FFF76CFF627802A9D8
:1026400021A0921C00F002FA6078401C607008AA79
:1026500012A10020FDF796FD064616B1607803280A
:10266000A8D361781FA000F0F1F90BB0F0BD000015
:102670000000002053696D696C61722043697469C0
:1026800065733A00140100205265636569766564DC
:1026900020646174613A2025730D0A003B0000003C
:1026A0001402002050726F63657373696E67207443
:1026B0006F6B656E3A2025730D0A00003A0000002A
:1026C00025733A252E326600446973706C6179690E
:1026D0006E673A202573206F6E206C696E65202529
:1026E000640D0A00546F74616C20636974696573CA
:1026F0002070726F6365737365643A2025640D0AF8
:102700000000000070477047FEF790BE30B58FB0F4
:1027100028216846FDF71FFD14210AA8FDF71BFDBF
:1027200001210804CDE9001000240294022504913F
:10273000CDE907504FF4E01009906846FEF7EAFF34
:1027400008B172B6FEE70F20CDE90A054FF48060AC
:10275000CDE90C4002210AA80E94FEF7FFFE0028E6
:1027600001D072B6FEE70FB030BD704710B5406AB9
:102770000021C185C184FFF706FA10BD01680C3144
:1027800051E8002F22F4907241E80023002BF5D18C
:102790000168143151E8002F22F0010241E80023C2
:1027A000002BF5D1016B012909D101680C3151E8E9
:1027B000002F22F0100241E80023002BF5D1202148
:1027C00080F8421000210163704708B590F842106C
:1027D000222901D0022008BD82684FF480539A421A
:1027E00001D1016921B1816A9A421BD04AB10AE044
:1027F0000268816A5268C2F308020A80816A891CF1
:1028000008E0026972B10268526802F07F020A7041
:10281000816A491C8162C18D491E0904090CC18568
:1028200003D01BE002685268F1E70168CA6822F031
:102830002002CA600168CA6822F48072CA60016816
:102840004A6922F001024A61202180F842100021E9
:102850004163026B012A03D0FFF74CFB002008BD47
:10286000016301680C3151E8002F22F0100241E8A9
:102870000023002BF5D101680A68D20602D50A6848
:1028800049680091818DFFF77DF9E7E770B504464F
:1028900000680169E26821F4405111430161216936
:1028A000A0680843616908432168CA6841F20C6363
:1028B0009A430243CA6020684169A26921F44071C9
:1028C000114341611E492068884202D1FEF7ECFEA7
:1028D00001E0FEF7D9FE00EBC00101EB00126068D9
:1028E00064218000B2FBF0F3B3FBF1F36FF0180644
:1028F0007343B2FBF0F5B2FBF0F605EB8305322330
:1029000003EB0515B5FBF1F5B6FBF1F605F0F005A7
:1029100005EB0615B2FBF0F6B2FBF0F0B0FBF1F000
:102920006FF01802504306EB800003EB0010B0FB81
:10293000F1F0216800F00F002844886070BD0000AD
:102940000038014081628285C285002141642221D4
:1029500080F84210016921B10168CA6842F48072AE
:10296000CA6001684A6942F001024A610068C168B0
:1029700041F02001C160002070472DE9F8439846DE
:1029800017460D460446089E24E0701C22D0FEF730
:10299000BFFBA0EB0800B0421AD8CEB12068C168D6
:1029A000490717D5802D15D0402D13D00168C94394
:1029B00009070FD401680025406800902046FFF702
:1029C000DDFE0820606484F840500120BDE8F883F3
:1029D0000320FBE72068006835EA000004D00020EF
:1029E000B842D2D00020F1E70120F9E7134810B532
:1029F00000680168C943890610D440680021C2B24A
:102A00000F48AA2A0FD00F4B552A0FD04188FF2913
:102A100004D241880B44491C41801A70BDE8104023
:102A20000648FFF7B1B841800170F7E74288995432
:102A300001210170FFF7A6FDF0E70000CC000020A7
:102A40000000002014010020FEE700000FB4054B39
:102A500010B503A9044A029800F018F910BC5DF8FB
:102A600014FB0000FD330008180000200FB47CB5F3
:102A70000C0009AD01D0611E00E00021CDE900018C
:102A8000064B6A462946089800F000F9002C02D04F
:102A9000009A002111707CBC5DF814FB9333000890
:102AA0000907090E002804DB00F1E02080F800147B
:102AB000704700F00F0000F1E02080F8141D70470F
:102AC00001480068704700001C00002002E008C8B0
:102AD000121F08C1002AFAD170477047002001E098
:102AE00001C1121F002AFBD1704700000149086094
:102AF000704700001C0000202DE9FF5F82B000211C
:102B0000DDE90430020DDDF840B0034318D044F68F
:102B10001050A2F2FF3242431514119801281FD021
:102B2000A5EB0B00401C5FEA000A4FF000064E4F79
:102B3000DFF83891B046504615D5CAF1000413E0CD
:102B4000119801244AA3012801D16FEA0B010298D0
:102B5000119AC0E90031C0E9024206B0BDE8F09F19
:102B6000CBF10000DFE704460021404A491842EB60
:102B70000450CDE9001012E0E00707D032463B4692
:102B800040464946FDF7C2FC8046894632463B46F0
:102B900010461946FDF7BAFC06460F466410002C95
:102BA000EAD1DDE90401DDE90023BAF1000F06DA1C
:102BB000FDF7ACFC42464B46FDF7A8FC05E0FDF7EF
:102BC00017FD42464B46FDF713FD04460E46002214
:102BD000284BFDF795FD03D84FF0FF30014607E085
:102BE0000022254B20463146FDF7E9FBFDF76FFD3E
:102BF000102409E0002C0ADB0A220023FDF729FB40
:102C0000039B30321A55641E50EA0102F2D1641C53
:102C1000039AC4F111031444119A012A03D001222A
:102C200008430DD10AE0084304D000204FF0110BF7
:102C3000119072E7A3EB0B056D1E0DE05B4504DD03
:102C40004FF0000205F1010504E003DA4FF0000245
:102C5000A5F10105002AECD002981199C0E90231D2
:102C6000C0E9004579E70000000014400000F03F93
:102C7000300000000000F0430000E03F30380A2838
:102C800001D2012070470020704700002DE9FF4F5E
:102C900095B09A46884606460025EEE1252877D16C
:102CA00000242746F94A0121039400E0044316F862
:102CB000013F203B01FA03F01042F7D130782A2877
:102CC00011D06FF02F033078A0F13002092A16D806
:102CD000039A44F0020402EB820203EB4202104426
:102CE000761C0390EFE758F8042B0392002A03DACE
:102CF000504244F40054039044F00204761C3078AF
:102D00002E2816D116F8010F44F004042A280DD0FD
:102D10006FF02F023078A0F13003092B09D807EBB0
:102D2000870302EB4303C718761CF3E758F8047BCC
:102D3000761C30786C280FD006DC4C2817D0682819
:102D40000DD06A2814D104E0742810D07A280FD14D
:102D50000DE044F400140AE044F4801401E044F46B
:102D600040147278824202D104F58014761C761CDD
:102D7000307866280BD013DC582877D009DC00287F
:102D800075D04528F6D04628F4D047281AD193E1CB
:102D900018E0632835D0642879D0652812D18BE1FA
:102DA000702873D008DC6728F1D069286FD06E28AE
:102DB0000DD06F2806D1ACE073282CD0752874D0C4
:102DC000782853D05246179990476D1C54E1C4F3AC
:102DD0000250022809D003280DD0D8F8001004288A
:102DE0000DD00D6008F1040846E1D8F80010EA178C
:102DF000C1E90052F6E7D8F800100D80F2E70D7037
:102E0000F0E718F8041B8DF8001000208DF8010081
:102E1000EB46012003E058F804BB4FF0FF30610798
:102E20004FF0000102D40DE009F101018946B942D9
:102E30000FDA8145F8DB1BF809100029F4D108E00E
:102E400009F1010189468142FADB1BF809100029CA
:102E5000F6D103985346A0EB090721463846179A46
:102E600000F080FA284400EB090507E044E008E19F
:102E70000DE01BF8010B524617999047B9F1010973
:102E8000F7D2534621463846179AF2E039E00A2134
:102E9000C4F302524FF0000B0091022A06D058F8FA
:102EA000040BC117032A09D00AE023E008F1070048
:102EB00020F00702F2E80201904605E000B2C117D7
:102EC000042A01D140B2C117002906DA0A460021BE
:102ED000404261EB02012D2202E0220504D52B22A3
:102EE0008DF80420012203E0E20701D02022F7E759
:102EF000914657E00A2100E010214FF0000B0091AD
:102F00000BE010214FF0000B44F00404082700915F
:102F100003E008204FF0000B0090C4F30252022A95
:102F200005D058F8040B0021032A08D008E008F166
:102F3000070020F00702F2E80201904603E080B2A9
:102F4000042A00D1C0B24FF0000922072AD53278F6
:102F5000702A07D0DDF800C08CF0100C5CEA0B0C76
:102F600005D00EE040228DF80420012208E050EA4E
:102F7000010306D030238DF804308DF8052002229D
:102F80009146009B83F0080353EA0B030AD150EAF1
:102F9000010201D1620705D530228DF804204FF0DF
:102FA00001097F1E3278582A04D039A20C920CAA4B
:102FB00002920BE03BA2F9E75B46009AFDF749F964
:102FC0000C9B9B5C029A521E0292137050EA010203
:102FD000F2D1029804A9081A00F1200B600702D56B
:102FE00024F4803400E001275F4502DDA7EB0B00ED
:102FF00000E0002000EB0B01009003984944401AC8
:103000000390E00306D453462146179A039800F034
:10301000A9F90544002706E001A85246C05D1799AA
:1030200090476D1C7F1C4F45F6DBE0030CD55346E3
:103030002146179A039800F095F9054404E03020E2
:103040005246179990476D1C0099481E0090002920
:10305000F5DC08E00298029952460078491C02917A
:10306000179990476D1CBBF10001ABF1010BF1DC2E
:103070005BE100F065F90544761C307800287FF4A8
:103080000DAE19B02846BDE8F08F000009280100F8
:1030900030313233343536373839616263646566CE
:1030A0000000000030313233343536373839414290
:1030B0004344454600000000600700D4062708F19D
:1030C000070020F00700F0E80223804603F0004CE0
:1030D0005FEA0C0001D097A009E0200501D596A079
:1030E00005E0E00701D095A001E0AFF24C0013909D
:1030F000307823F0004365280CD006DC452809D041
:1031000046281DD047287FD13BE0662818D0672885
:103110007AD136E00021112F01DB112000E0781C6C
:10312000CDE9000104A90CA8FFF7E6FCDDE90D01DB
:103130000C9A4FF0000B07F10109109200914EE03C
:103140004FF000400097CDE9011004A90CA8FFF74B
:10315000D3FCDDE90D020C9B0F994FF0000B91465B
:103160001093009211B9791C00EB0109B7EB09002B
:1031700003D4C0F1FF3B07F10109A9EB070001905F
:1031800042E0012F00DA01270021112F01DD11207B
:1031900000E03846CDE9000104A90CA8FFF7ACFC1B
:1031A000DDE90D010C9A00914FF0000BB946109229
:1031B00021070FD4009A4A4503DA914601E0A9F1AC
:1031C0000109B9F1010F05DD109AA9F10101515C66
:1031D0003029F4D0B84202DA10F1040F03DA0121E9
:1031E000CDE9011010E0002803DC8344A9EB0001C5
:1031F00002E0411C494500DD8946A0EB0B00401C64
:1032000001904FF000400290200705D401984845F6
:1032100002DB4FF0FF30019000208DF84B00029848
:103220000DF14B07B0F1004F25D002200C902B2060
:103230000D90029800280CDA404202902D200D904B
:1032400007E00A210298FCF7EEFF3031029007F800
:10325000011D0C99481E0C900029F2DC02980028F0
:10326000EFD1791E0D980870307800F0200040F002
:10327000450007F8020D11A8C01BC01D029013984D
:10328000007800B1012000EB0901019801EBE07129
:10329000029801440398401A401E0390E00306D4AC
:1032A00053462146179A039800F05CF8054413989A
:1032B000007818B15246179990476D1CE00323D54A
:1032C00053462146179A039800F04CF805441BE03A
:1032D000BBF1000F07DB0098584504DD10981799E3
:1032E00010F80B0001E017993020524690470198E2
:1032F0000BF1010B401E05F10105019004D12E20B8
:103300005246179990476D1CB9F10001A9F10109C6
:10331000DEDC05E017F8010B5246179990476D1C4B
:103320000299481E02900029F4DC53462146179A60
:1033300003989EE62D0000002B00000020000000F6
:103340002DE9F041044600251E461746880404D4A2
:1033500005E039462020B0476D1C641EF9D528468B
:10336000BDE8F0812DE9F041044600251E46904657
:10337000C80301D5302700E02027880404D505E0E4
:1033800041463846B0476D1C641EF9D52846BDE855
:10339000F0814A68002A06D00A68531C0B6010703E
:1033A0004868401E4860704730B583B00446FFF758
:1033B00087FB05460020CDE900000246214668460D
:1033C000FCF793FF2846FFF791FBDDE9000103B00E
:1033D00030BD00000649074A0968B1FBF2F1064A10
:1033E0004143506853681B1A8B42FBD3704700005F
:1033F0001000002040420F00001000E013B54FF411
:103400007A73012269460248FEF775FD00981CBDDB
:10341000CC0000200EB5FEF711F8FFF777F9FDF7A5
:10342000E7FCFEF71DFFFEF7B5FFFEF791FFFEF785
:103430006FFF1DA0FFF70AFBFDF720FCFEF7DBFF87
:10344000FEF7C6FF01211EA20846FFF763F801221E
:103450001F492048FEF740FD1F4D4FF4806441F2A4
:10346000883601A8FDF71AFC80B11CA0FFF7EEFA20
:10347000002221462846FDF746FE01222146284625
:10348000FDF741FE3046FDF737FDEAE79DF8050000
:1034900000909DF804309DF807209DF8061015A0B7
:1034A000FFF7D4FAE4E7000053797374656D20697F
:1034B0006E697469616C697A6564210D0A000000A7
:1034C00057616974696E6720446174612E2E2E0005
:1034D00014010020CC000020000C0140444854316D
:1034E000312052656164204661696C6564210D0A72
:1034F0000000000054656D70657261747572653A04
:103500002025642E2564432C2048756D69646974F8
:10351000793A2025642E256425250000000000004E
:10352000000000000000000000000000000000F8A3
:1035300000000000000000333000000000100C0606
:10354000100C0600000000000000000040C07840A1
:10355000C0784000043F04043F040400007088FC6D
:1035600008300000001820FF211E0000F008F000C5
:10357000E018000000211C031E211E0000F0088836
:10358000700000001E2123241927211010160E00A0
:10359000000000000000000000000000000000E04B
:1035A0001804020000000007182040000002041860
:1035B000E00000000040201807000000404080F0BC
:1035C000804040000202010F01020200000000F0F2
:1035D000000000000101011F0101010000000000C6
:1035E0000000000080B0700000000000000000003B
:1035F00000000000000101010101010100000000C4
:10360000000000000030300000000000000000005A
:1036100080601804006018060100000000E0100837
:103620000810E000000F102020100F00001010F80C
:10363000000000000020203F20200000007008084B
:1036400008887000003028242221300000300888CB
:10365000884830000018202020110E000000C020F3
:1036600010F8000000070424243F240000F8088814
:10367000880808000019212020110E0000E01088A1
:1036800088180000000F112020110E0000380808D3
:10369000C83808000000003F0000000000708808E3
:1036A00008887000001C222121221C0000E0100864
:1036B0000810E0000000312222110F00000000C0BD
:1036C000C00000000000003030000000000000805A
:1036D000000000000000806000000000000080404A
:1036E0002010080000010204081020004040404063
:1036F00040404000040404040404040000081020B6
:1037000040800000002010080402010000704808FA
:103710000808F0000000003036010000C030C82862
:10372000E810E0000718272423140B000000C0381D
:10373000E0000000203C23020227382008F8888897
:1037400088700000203F202020110E00C0300808A3
:1037500008083800071820202010080008F808087A
:103760000810E000203F202020100F0008F8888873
:10377000E8081000203F20202320180008F888883F
:10378000E8081000203F200003000000C0300808B7
:103790000838000007182020221E020008F8080040
:1037A0000008F808203F210101213F20000808F807
:1037B000080800000020203F20200000000008082A
:1037C000F8080800C08080807F00000008F888C0EA
:1037D00028180800203F20012638200008F808009B
:1037E00000000000203F20202020300008F8F800D2
:1037F000F8F80800203F003F003F200008F830C0E4
:103800000008F808203F200007183F00E0100808D3
:103810000810E0000F10202020100F0008F8080802
:103820000808F000203F210101010000E010080815
:103830000810E0000F18242438504F0008F888883A
:1038400088887000203F2000030C3020007088081A
:10385000080838000038202121221C00180808F828
:10386000080818000000203F2000000008F80800A9
:103870000008F808001F202020201F00087888007A
:1038800000C83808000007380E010000F80800F8EA
:103890000008F800033C0700073C03000818688094
:1038A0008068180820302C03032C30200838C8000A
:1038B000C83808000000203F200000001008080859
:1038C000C83808002038262120201800000000FEFB
:1038D000020202000000007F40404000000C30C0A7
:1038E00000000000000000010638C00000020202D3
:1038F000FE000000004040407F0000000000040285
:1039000002020400000000000000000000000000AF
:10391000000000008080808080808080000202049F
:103920000000000000000000000000000000808097
:10393000808000000019242222223F2008F8008005
:1039400080000000003F112020110E0000000080C8
:1039500080800000000E1120202011000000008057
:103960008088F800000E112020103F200000808089
:1039700080800000001F222222221300008080F09D
:10398000888888180020203F2020000000008080C8
:1039900080808000006B94949493600008F800800D
:1039A00080800000203F210000203F200080989868
:1039B000000000000020203F2020000000000080C8
:1039C0009898000000C08080807F000008F8000008
:1039D00080808000203F24022D302000000808F85D
:1039E000000000000020203F202000008080808018
:1039F00080808000203F20003F20003F80800080AA
:103A000080800000203F210000203F2000008080B7
:103A100080800000001F202020201F008080008068
:103A20008000000080FFA12020110E000000008017
:103A300080808000000E112020A0FF808080800008
:103A40008080800020203F21200001000000808035
:103A5000808080000033242424241900008080E02A
:103A6000808000000000001F2020000080800000F7
:103A700000808000001F202020103F2080808000D8
:103A80000080808000010E300806010080800080E8
:103A9000008080800F300C030C300F00008080000D
:103AA000808080000020312E0E3120008080800038
:103AB0000080808080818E701806010000808080E8
:103AC000808080000021302C222130000000000086
:103AD000807C020200000000003F40400000000027
:103AE000FF00000000000000FF0000000002027C58
:103AF000800000000040403F00000000000601017F
:103B000002020404000000000000000001020203A1
:103B10000405060708090A0B0C0D0E0F1010000013
:103B2000000000000000010203040607080900006D
:103B3000000001020304DDDDDDDDDCBBBBDDDDDD1E
:103B4000DDDDDDDDDDDD9888888888888888777709
:103B5000777777888888855555566666666666667F
:103B600066666668888883333332222222222222C4
:103B700022222228888D0000983B000800000020A7
:103B800020000000CC2A0008B83B000820000020DC
:103B900070060000DC2A00080000000001000000A0
:103BA000100000000000000000127A000000000079
:083BB00000000000000000000D
:04000005080000ED02
:00000001FF
